:100000000C945D000C9485000C9485000C94850084
:100010000C9485000C9485000C9485000C9485004C
:100020000C9485000C9485000C9485000C9485003C
:100030000C9485000C9485000C9485000C9485002C
:100040000C940E030C9485000C94DC020C94B60204
:100050000C9485000C9485000C9485000C9485000C
:100060000C9485000C94850000000008000201003B
:100070000003040700000000000000000000000072
:10008000250028002B0000000000240027002A0083
:10009000040404040404040402020202020203032E
:1000A0000303030301020408102040800102040836
:1000B0001020010204081020920511241FBECFEF6A
:1000C000D8E0DEBFCDBF23E0A0E7B2E001C01D92C3
:1000D000A631B207E1F712E0A0E0B1E0E2ECFBE00C
:1000E00002C005900D92A037B107D9F710E0CDE519
:1000F000D0E004C02197FE010E94D905CC35D1077C
:10010000C9F70E9458030C94DF050C94000090E09E
:10011000FC01EC55FF4F249180579F4FFC018491C7
:10012000882399F090E0880F991FFC01EA57FF4F50
:10013000A591B491FC01E458FF4F859194918FB73C
:10014000F894EC91E22BEC938FBF0895AF92BF929D
:10015000CF92DF92EF92FF920F931F93CF93DF9393
:100160006C017B018B01040F151FEB015E01AE18C2
:10017000BF08C017D10759F06991D601ED91FC91E4
:100180000190F081E02DC6010995892B79F7C50111
:10019000DF91CF911F910F91FF90EF90DF90CF9063
:1001A000BF90AF900895FC01538D448D252F30E012
:1001B000842F90E0821B930B541710F0CF96089574
:1001C00001970895FC01918D828D981761F0A28DA1
:1001D000AE0FBF2FB11D5D968C91928D9F5F9F7367
:1001E000928F90E008958FEF9FEF0895FC01918D1D
:1001F000828D981731F0828DE80FF11D858D90E08A
:1002000008958FEF9FEF08952FB7F89480917502AE
:1002100090917602A0917702B09178022FBF8093DF
:10022000810290938202A0938302B093840289E7B3
:1002300092E00E94F60097FF26C02FB7F8948091B5
:10024000750290917602A0917702B09178022FBF4B
:1002500040918102509182026091830270918402E8
:10026000841B950BA60BB70B40917D0250917E022B
:1002700060917F027091800284179507A607B707E7
:10028000B0F28FEF9FEF0895FC01918D228D892FA1
:1002900090E0805C9F4F821B91098F73992708958E
:1002A00089E792E00E94440121E0892B09F420E0D3
:1002B000822F089580E090E0892B29F00E94500160
:1002C00081110C9400000895FC01A48DA80FB92F92
:1002D000B11DA35ABF4F2C91848D90E001968F736E
:1002E0009927848FA689B7892C93A089B1898C918D
:1002F000837080648C93938D848D981306C00288DC
:10030000F389E02D80818F7D80830895EF92FF92A5
:100310000F931F93CF93DF93EC0181E0888F9B8D28
:100320008C8D98131AC0E889F989808185FF15C0E2
:100330009FB7F894EE89FF896083E889F989808105
:100340008370806480839FBF81E090E0DF91CF91D4
:100350001F910F91FF90EF900895F62E0B8D10E0F6
:100360000F5F1F4F0F731127E02E8C8D8E110CC065
:100370000FB607FCFACFE889F989808185FFF5CFB0
:10038000CE010E946401F1CFEB8DEC0FFD2FF11D2A
:10039000E35AFF4FF0829FB7F8940B8FEA89FB89ED
:1003A00080818062CFCFCF93DF93EC01888D88234B
:1003B000B9F0AA89BB89E889F9898C9185FD03C0C8
:1003C000808186FD0DC00FB607FCF7CF8C9185FFAD
:1003D000F2CF808185FFEDCFCE010E946401E9CF8D
:1003E000DF91CF91089590E0FC01E859FF4F2491EF
:1003F000FC01EC55FF4F3491FC01E057FF4FE491B5
:10040000EE23C9F0222339F0233001F1A8F4213082
:1004100019F1223029F1F0E0EE0FFF1FE458FF4FF1
:10042000A591B4918FB7F894EC91611126C03095E5
:100430003E233C938FBF08952730A9F02830C9F0A0
:10044000243049F7809180008F7D03C08091800027
:100450008F7780938000DFCF84B58F7784BDDBCF2B
:1004600084B58F7DFBCF8091B0008F778093B000F3
:10047000D2CF8091B0008F7DF9CF3E2BDACF3FB73E
:10048000F8948091710290917202A0917302B091E0
:10049000740226B5A89B05C02F3F19F00196A11D37
:1004A000B11D3FBFBA2FA92F982F8827BC01CD01BE
:1004B000620F711D811D911D42E0660F771F881F1D
:1004C000991F4A95D1F708958F929F92AF92BF924C
:1004D000CF92DF92EF92FF920E943F024B015C01AC
:1004E00084E6C82ED12CE12CF12C0E943F02681921
:1004F00079098A099B09683E734081059105A8F333
:1005000021E0C21AD108E108F10888EE880E83E0E4
:10051000981EA11CB11CC114D104E104F10429F7F7
:10052000FF90EF90DF90CF90BF90AF909F908F9013
:100530000895CF93DF93FC0101900020E9F73197F4
:10054000AF01481B590BBC0189E792E00E94A6004D
:10055000EC0142E050E062E171E089E792E00E9444
:10056000A6008C0F9D1FDF91CF9108951F920F92CF
:100570000FB60F9211242F933F934F935F936F9376
:100580007F938F939F93AF93BF93EF93FF9389E7ED
:1005900092E00E946401FF91EF91BF91AF919F9112
:1005A0008F917F916F915F914F913F912F910F901C
:1005B0000FBE0F901F9018951F920F920FB60F92BB
:1005C00011242F938F939F93EF93FF93E0918902D0
:1005D000F0918A028081E0918F02F091900282FD79
:1005E0001BC09081809192028F5F8F732091930244
:1005F000821741F0E0919202F0E0E758FD4F958FAD
:1006000080939202FF91EF919F918F912F910F9084
:100610000FBE0F901F9018958081F4CF1F920F92FC
:100620000FB60F9211242F933F938F939F93AF9305
:10063000BF938091750290917602A0917702B0915C
:1006400078023091700223E0230F2D3758F5019680
:10065000A11DB11D209370028093750290937602C4
:10066000A0937702B0937802809171029091720208
:10067000A0917302B09174020196A11DB11D8093E7
:10068000710290937202A0937302B0937402BF91AF
:10069000AF919F918F913F912F910F900FBE0F902F
:1006A0001F90189526E8230F0296A11DB11DD2CFE9
:1006B000789484B5826084BD84B5816084BD85B53D
:1006C000826085BD85B5816085BD80916E00816049
:1006D00080936E00109281008091810082608093EF
:1006E00081008091810081608093810080918000F1
:1006F0008160809380008091B10084608093B1001C
:100700008091B00081608093B00080917A00846015
:1007100080937A0080917A00826080937A00809141
:100720007A00816080937A0080917A00806880935B
:100730007A001092C100E0918902F0918A0282E071
:100740008083E0918502F09186021082E091870219
:10075000F09188028FEC808310929102E0918D02DB
:10076000F0918E0286E08083E0918B02F0918C0202
:10077000808180618083E0918B02F0918C02808186
:1007800088608083E0918B02F0918C028081806888
:100790008083E0918B02F0918C0280818F7D808339
:1007A00085E191E00E9499020E9464028CE00E941F
:1007B00087008BE00E9487008AE00E94870089E022
:1007C0000E94870088E00E94870087E00E948700DF
:1007D00086E00E94870085E00E94870084E00E94F6
:1007E000870083E00E94870082E00E948700C0E0CB
:1007F000D0E089E792E00E944401892B09F427C1E7
:100800000E940401FC0197FD8FC08D32910521F0FB
:10081000C0970A9708F081C0C12CD12C760110E056
:10082000E130F105D9F0ED32F10509F47BC0CF01DB
:10083000C0970A9798F4AAE0B0E0A70196010E9439
:10084000BF056F01FF0FEE08FF08C60ED71EE81E9A
:10085000F91E80E3C81AD108E108F10889E792E09F
:100860000E94E2000E940401FC01C0970A97C0F2B6
:10087000E130F105A9F2112341F0F094E094D09415
:10088000C094C11CD11CE11CF11C83E0C816D1042A
:1008900009F04EC061E08CE00E94F3018DE291E02E
:1008A0000E9499020E94640288E0C816D10409F0EF
:1008B00059C060E08AE00E94F30189E791E00E945C
:1008C00099020E9464028DE0C816D10409F059C053
:1008D00061E087E00E94F30182EC91E00E949902BE
:1008E0000E94640282E1C816D10409F059C060E098
:1008F00085E00E94F3018AE092E00E9499020E9442
:10090000640287E1C816D10409F059C061E082E0B1
:100910000E94F30183E592E096C089E792E00E948D
:10092000E2006ECF11E09ACFC12CD12C7601ADCF71
:1009300084E0C816D10439F460E08CE00E94F30131
:100940008CE391E0ADCF85E0C816D10409F043C037
:1009500061E08BE00E94F3018CE491E00E94990237
:100960000E94640289E0C816D10409F043C061E026
:1009700089E00E94F30188E891E00E9499020E94B8
:1009800064028EE0C816D10409F043C060E087E03D
:100990000E94F30180ED91E00E9499020E9464029E
:1009A00083E1C816D10409F043C061E084E00E94ED
:1009B000F30189E192E00E9499020E94640288E1B9
:1009C000C816D10409F043C060E082E00E94F30140
:1009D00081E692E038C086E0C816D10409F042C032
:1009E00060E08BE00E94F3018BE591E00E949902A8
:1009F0000E9464028AE0C816D10409F06CC060E06D
:100A000089E00E94F30186E991E00E9499020E9428
:100A100064028FE0C816D10409F06BC061E086E083
:100A20000E94F3018FED91E00E9499020E946402FE
:100A300084E1C816D10409F06AC060E084E00E9435
:100A4000F30187E292E00E9499020E9464022097DB
:100A500009F4CFCE0E945001882309F4CACE0E9427
:100A60000000C7CE87E0C816D10409F01DCF61E0B1
:100A70008AE00E94F3018BE691E00E9499020E94B5
:100A800064028CE0C816D10409F01DCF60E088E054
:100A90000E94F30183EB91E00E9499020E9464029C
:100AA00081E1C816D10409F01DCF61E085E00E9404
:100AB000F3018CEF91E00E9499020E94640286E1AA
:100AC000C816D10409F01DCF60E083E00E94F30155
:100AD00084E492E0B8CF8BE0C816D10491F661E0CF
:100AE00088E00E94F30185EA91E00E9499020E9449
:100AF000640280E1C816D10499F660E086E00E94A5
:100B0000F3018DEE91E00E9499020E94640285E15A
:100B1000C816D104A1F661E083E00E94F30186E3E8
:100B200092E091CFE9E7F2E01382128288EE93E03F
:100B3000A0E0B0E084839583A683B78384E091E04E
:100B40009183808385EC90E09587848784EC90E0A6
:100B50009787868780EC90E0918B808B81EC90E08A
:100B6000938B828B82EC90E0958B848B86EC90E06B
:100B7000978B868B118E128E138E148E08950E9481
:100B8000CA05A59F900DB49F900DA49F800D911D47
:100B900011240895A29FB001B39FC001A39F700DBF
:100BA000811D1124911DB29F700D811D1124911D75
:100BB0000895EE0FFF1F0590F491E02D0994F8942D
:020BC000FFCF65
:100BC200000000008601A600D300D3014401E20028
:100BD200F6000D0A00436F6E6E656374696F6E20D6
:100BE2007375636365737366756C6C2E0052656C06
:100BF2006179203131206973204F4E0052656C615A
:100C020079203131206973204F46460052656C616C
:100C120079203130206973204F4E0052656C617922
:100C2200203130206973204F46460052656C61794D
:100C32002039206973204F4E0052656C617920394A
:100C4200206973204F46460052656C617920382036
:100C52006973204F4E0052656C61792038206973A8
:100C6200204F46460052656C617920372069732017
:100C72004F4E0052656C61792037206973204F46D0
:100C8200460052656C61792036206973204F4E0010
:100C920052656C61792036206973204F46460052B6
:100CA200656C61792035206973204F4E0052656C66
:100CB20061792035206973204F46460052656C6188
:100CC200792034206973204F4E0052656C6179207F
:100CD20034206973204F46460052656C6179203397
:100CE200206973204F4E0052656C61792033206970
:100CF20073204F46460052656C6179203220697339
:100D0200204F4E0052656C61792032206973204F6A
:100D120046460052656C61792031206973204F4E3E
:100D22000052656C61792031206973204F4646007C
:00000001FF
